:020000021000EC
:10C000000040002081420200BD420200BF42020007
:10C010000000000000000000000000000000000020
:10C02000000000000000000000000000C14202000B
:10C030000000000000000000C3420200C5420200F0
:10C04000C7420200C7420200E1410200C7420200AB
:10C05000C742020000000000F9340200C74202009B
:10C06000C7420200C74202003D400200C742020030
:10C07000C7420200C7420200C7420200C742020094
:10C08000C7420200A9470200C7420200C74202009D
:10C09000C7420200D5E4010075FE0100C74202005C
:10C0A000C7420200C742020000000000000000007A
:10C0B0000000000000000000000000000000000080
:10C0C00010B5064C2378002B07D1054B002B02D06E
:10C0D000044800E000BF0123237010BD402B002066
:10C0E00000000000E0E80200044B10B5002B03D074
:10C0F0000349044800E000BF10BDC0460000000036
:10C10000442B0020E0E80200164B002B00D1144B1A
:10C110009D46402292029A1A924600218B460F4673
:10C120001348144A121A09F01FFC0F4B002B00D0C1
:10C1300098470E4B002B00D09847002000210400A8
:10C140000D000D48002802D00C4807F0D4FD09F07E
:10C1500031FB2000290007F04CFF07F0C9FDC04665
:10C16000000008000040002000000000E73F02003F
:10C17000402B002054310020F73C0200000000005A
:10C18000704710B50368002B01D00800984710BD18
:10C1900002000B00F0B5126889B0019203AA1500E5
:10C1A0001E004068016889688C4692CE92C5DB68A3
:10C1B0000199D36000231361E04709B0F0BD00008E
:10C1C00070B50400002521600E0045600C22083087
:10C1D000290009F0C9FB094BA5616361AE420AD190
:10C1E000074D2B68002B02D106F026FF286023683C
:10C1F0009B00EB586360200070BDC04683C1010006
:10C20000802B002070B500280DD1124C2668002E1E
:10C2100007D11C3007F0C8FE05003100FFF7D0FF42
:10C220002560206870BD01260B4D2B78BFF35B8F16
:10C230000A4C334201D02000F4E7280007F068FDE3
:10C240000028F8D031002000FFF7BAFF280007F0DF
:10C250007BFDF0E7602B00205C2B0020642B00208E
:10C26000436810B50400002B02D1044809F010F80F
:10C27000606803689B69984710BDC04658CA0200B1
:10C2800010B5FFF7EDFF10BD436810B50400002B9B
:10C2900002D1044808F0FCFF606803681B6A9847F5
:10C2A00010BDC04658CA0200436810B50400002BF8
:10C2B00002D1044808F0ECFF606803685B6B9847A4
:10C2C00010BDC04658CA0200030007B59A6808307E
:10C2D000002A06D0034A002A03D0019301A95B6912
:10C2E000984707BD81C10100704710B50800FFF7EE
:10C2F00089FFFFF7E9FF10BDF7B5FA26B6007143D5
:10C30000009308AB1B780400080013491700019341
:10C310000DF032FB85B23000258078430E490DF0D8
:10C320002BFB009B80B2A380019B6080A371032D37
:10C3300001D80423238080232288DB019A4200D97C
:10C340002380032801D80422628062889A4200D99F
:10C3500063802000FEBDC0467102000070B504007D
:10C360001D0008F0D1FA0023A5612000237770BDDD
:10C370000F2270B50026050086B06A441170009641
:10C3800005AC0123816908F0F3FA2200A96926802F
:10C3900002230096280008F00CFB0020637820564A
:10C3A0001B11000118430EF01DFBF62189050EF04C
:10C3B00003F806B070BD10B50021FFF7D9FF10BD1E
:10C3C000704710B50368002B01D00800984710BDD6
:10C3D00010B50368002B01D00800984710BD37B591
:10C3E00004680D00002C0ED0011D0822684609F0DB
:10C3F0009FFA019A009B50102018D20701D50268BD
:10C40000D3582900984737BD37B504680D00002C74
:10C410000ED0011D0822684609F08AFA019A009B95
:10C4200050102018D20701D50268D3582900984728
:10C4300037BD37B504680D00002C0ED0011D082251
:10C44000684609F075FA019A009B50102018D2072F
:10C4500001D50268D3582900984737BD37B504681D
:10C460000D00002C0ED0011D0822684609F060FA6C
:10C47000019A009B50102018D20701D50268D358AA
:10C480002900984737BD37B504680D00002C0ED041
:10C49000011D0822684609F04BFA019A009B5010D2
:10C4A0002018D20701D50268D3582900984737BD14
:10C4B000030010B54E334A881B889A420BD10A8973
:10C4C000142A08D8030000242D331A705C7004303D
:10C4D000C96809F02DFA10BD10B50400074B0360C0
:10C4E00008F051FB2000636B2830002B01D09B68C3
:10C4F0009847200008F094F9200010BD94E1020054
:10C5000010B50400034B083303601830FFF7E4FF55
:10C51000200010BDD4CA020010B50400FFF7F0FFE0
:10C52000200007F055FD200010BD10B50400FFF7F6
:10C53000D3FF200007F04CFD200010BDF7B501929D
:10C540000400C07F1D00C3180F0001261D2B1ADC3C
:10C55000A9193200201809F007FAE07F320080198B
:10C56000C0B2E0773900201809F0FEF9E07F2A0018
:10C5700080190026C0B2E0770199201809F0D8F997
:10C58000E37FED18E5773000FEBD0000F7B5089CAD
:10C590000600152922D8012007008F40254D2F4283
:10C5A0001CD0F17FCD181F2D43DC71182518A9422E
:10C5B00010D80021C8B2834204D9555C6018857038
:10C5C0000131F7E722789A182270F27F9B18F377EF
:10C5D00000202EE00878C8540139E8E72578013DAD
:10C5E000EDB2AB4208D10023D9B28D42F0D9D05C74
:10C5F000E11888700133F7E7F77F01207F1BFF18F0
:10C600001F2F16DCA81C241802204042401B01905A
:10C61000F07F3718BC4204D22078019FE0550134E6
:10C62000F6E702246442651B4019F0773000FFF7FB
:10C6300085FFFEBDFC002000F7B50024C67FA642A2
:10C6400005D905196F788F4204D1002D07D1FFF766
:10C6500075FF07E0055D01356419E4B2EFE7009569
:10C66000FFF794FFFEBD70B506008AB00A360C00D5
:10C6700022223100050001A809F05AF96B46DA1CA4
:10C68000012301A819001470FFF7D6FF041E0DD175
:10C690002A002B6834329B6F01A928009847041E9A
:10C6A00004D1222201A9300009F042F920000AB089
:10C6B00070BDF0B505000E0017008DB00A352222BE
:10C6C0002900040003A8019309F032F93100019B0D
:10C6D0003A0003A8FFF7B0FF061E0DD12200236821
:10C6E00034329B6F03A920009847061E04D12222F2
:10C6F00003A9280009F01CF930000DB0F0BD70B599
:10C700000400013026000300002511361D7001339E
:10C710009E42FBD1012365822370002A08D10B00C1
:10C720001033994207D0013B1A7802700130F8E7C4
:10C73000102209F006F9A27B637B1202134320004A
:10C74000638270BDF0B5040085B001930AAB1E880A
:10C750000BAB1B78451C02930EAB1B7817000393A1
:10C760000B78102203704B8A01314382280009F0B4
:10C77000DFF8268300260122019B67616383039B08
:10C78000E6832377029B2000EB77A31CDA770C9BD0
:10C790000C25636223000D9A28331A705E709E7018
:10C7A0002A0031002C3009F0DFF82000064BE66348
:10C7B000A3632A003100403009F0D6F82000034B73
:10C7C0002665E36405B0F0BDD1C30100C3C3010019
:10C7D00010B5FFF755FD806D10BD0000F0B50200EB
:10C7E0000700183299B002C7069204003B000022ED
:10C7F00006991A7001339942FAD122000B002C32AB
:10C800000021197001339342FAD12300002210ADA8
:10C810002E33A28537491A702800FFF770FF0C23CA
:10C820000126002220000193083329000496039278
:10C83000029200933A00330030300790FFF782FFF6
:10C8400000222D492800FFF75AFF14230496009375
:10C8500033002600002210218436039202920191B7
:10C86000069A29003000FFF76DFF079B0A960BAE72
:10C870000022224930000993FFF741FF252139208A
:10C88000337810222B70738A09AF6B8202ABC91800
:10C89000C01809F04DF8002202232068AA832B75E6
:10C8A000AF61FFF7F1FC036829001B689847206817
:10C8B000FFF7EAFC0700142007F076FB05000C22C6
:10C8C000002109F051F8002228000D4BEA602A618E
:10C8D0000C9210C0083231000B9309F029F8094B73
:10C8E000EB60BB69002B03D12000BD6119B0F0BD26
:10C8F0002B61F9E78ECA02007BCA02009ECA0200C1
:10C90000B1C4010087C40100F0B50B6889B01B6891
:10C910000600002B00D09FE00F79002F00D09BE095
:10C92000040058342000FFF79BFC0190142007F00E
:10C930003BFB05000C22390009F016F828004A4B91
:10C94000EF602F61082240C002A90293039708F00C
:10C95000EFFF464BEB60019BA4331A68002A00D01E
:10C960007CE01D602000FFF77BFC0700142007F02F
:10C970001BFB05000C22002108F0F6FF0023280015
:10C980003B4AEB602B61049240C0082204A9059346
:10C9900008F0CEFF374B9837EB603B68002B5FD138
:10C9A0003D602000FFF770FC0700142007F0FCFA40
:10C9B00005000C22002108F0D7FF002328002E4A92
:10C9C000EB602B61069240C0082206A9079308F08D
:10C9D000AFFF2A4BEB60BB69002B43D1BD61D82070
:10C9E00007F0E2FA05002100FFF7F8FE2000756766
:10C9F000FFF736FC0621FFF736FE2000FFF730FC7C
:10CA0000002303712000FFF72BFC07231C4A092198
:10CA1000FFF74FFE2000FFF723FC0223194A0321F2
:10CA2000FFF747FE2000FFF71BFC036804009B682C
:10CA3000984703000A20834203D9236820009B689B
:10CA40009847FA239B00104958430CF095FF0721A3
:10CA5000E080706800F080FB09B0F0BD2A6180E7DB
:10CA60002B619DE72B61B9E7C1C3010009C4010037
:10CA70001DCB010033C401003DCB01005DC40100AA
:10CA8000CACA0200842B002071020000F0B5040025
:10CA900087B00800059109F0C5FF04902068FFF7F2
:10CAA00097FE830736D50023049E0393002E31D0D2
:10CAB00023002C33187814231D1AB54200D93500F1
:10CAC0002700059B039A183099182C372A00201844
:10CAD00008F02EFF3B78039A5B19DBB25219761BE4
:10CAE0003B700392142B03D0E318DB7D0A2BDDD1BE
:10CAF0002068FFF7C9FB22000025A23211880268D6
:10CB00003B780095D268150022001832A847002310
:10CB10003B70CBE7049807B0F0BD000010B50400EF
:10CB20000549406FFFF7B2FF606800F02EFB02215D
:10CB3000606800F011FB10BDB7CA020010B50249D1
:10CB4000406FFFF7A3FF10BDC1CA0200F0B504009B
:10CB50002F4B8FB00833036018300D0007F038FEFC
:10CB600020002C4B1022A3610021403008F0FCFE75
:10CB70002300012250331A7008330021180001935A
:10CB8000FFF71EFB23006560002578331D7000232E
:10CB9000E367230080331D705D6008331D600C2047
:10CBA00007F002FA060000F0C3F9A660E560202055
:10CBB00007F0FAF99023062205210600FFF7CEFBC5
:10CBC000FE2008272661800508F0AEFB3A00290008
:10CBD000656705A808F0C8FE0F4B04AE02A93A002D
:10CBE00005A8F560356102930395049408F0A0FE52
:10CBF0000A4B09A99C460A00F36089CE89C26346A4
:10CC00000198CB600D61FFF7C3FA20000FB0F0BDB3
:10CC1000D4CA020094E1020009C90100DFC3010087
:10CC200070B505005830FFF71BFB0368011DDB6F73
:10CC300004009847002804D1012358342278134374
:10CC40002370686800F0ECFA70BD10B55830FFF73B
:10CC50002BFB10BD70B505005835BCB00400280092
:10CC6000FFF7B6FD830724D5002103A8FFF7A8FA34
:10CC70002069FFF7A0FB0FF0DDFC02000B000AA803
:10CC80000D4909F063FE0AA9606FFFF7FFFE636FAD
:10CC90000AA8A2331E8809F0C5FE04002800FFF789
:10CCA000F3FA002102680091A3B23100D4680AAA05
:10CCB000A0473CB070BDC046AECA0200024B1A8805
:10CCC000024B1A807047C0468CCA0200842B002099
:10CCD00010B5002801D01CC91CC010BD704703004E
:10CCE00010B542689968501008181B68D20701D522
:10CCF0000268D358984710BD70B50500836D0400D5
:10CD00004C35002B05D1842204499200044807F0D9
:10CD1000FDFEA36D28001B68984770BDF0CA020095
:10CD20000ECB0200C36810B50400002B01D09B6835
:10CD30009847200010BD000010B50400054B0833D3
:10CD400003604C30FFF7EEFF20000830FFF7C4FB14
:10CD5000200010BD14CB020010B50400FFF7ECFF5B
:10CD6000200007F035F9200010BD70B504000D005B
:10CD700088420CD0FFF7D6FF002C08D0EB68002BC0
:10CD800003D05B68290020009847EB68E36020002F
:10CD900070BD000030B585B00400050010220021F0
:10CDA000684608F0E1FD124B0294009300230193C2
:10CDB000104B0835039308F0FDFAE36B002B06D106
:10CDC000230040331B78002B01D007F023FE200006
:10CDD00069463030FFF7C9FF074A0023280007F0F3
:10CDE000BAFE08F0FDFA6846FFF79CFF05B030BDBB
:10CDF000F9CC0100E4CA0200A0860100F0B50400ED
:10CE0000214B85B008330360083007F0E1FC2000B7
:10CE10001E4B1022A3600021303008F0A5FD260033
:10CE20002300012240334C361A7000210F323000AB
:10CE300008F09AFD402007F0B7F8050000271121FF
:10CE400007F0DCFE1022A5640021684608F08CFD86
:10CE50000F4B694600930F4B2800039301970294F0
:10CE600007F00FFF6846FFF75DFF102239006846A4
:10CE700008F07AFD69463000FFF777FF6846FFF754
:10CE800051FF200005B0F0BD14CB020094E1020078
:10CE900095CD0100E4CA0200704770477047012336
:10CEA0000372704710B5002801D01CC91CC010BD0A
:10CEB0007047030010B542689968501008181B6845
:10CEC000D20701D50268D358984710BD10B50400A9
:10CED00007F07EF8200010BD0022002382569A42FF
:10CEE00012DC0433002A0FD101228256033B002AB0
:10CEF0000ADC0433002A07D18078033B40B20028C3
:10CF000002DC4342434106331800704770B5060007
:10CF1000FFF7E2FF0500F01CFFF7DEFF0400B01D85
:10CF2000FFF7DAFFE40080012043284380B270BDA0
:10CF3000334B70B508330360002386B003720400DE
:10CF4000402007F031F805000E2107F057FE0D21B3
:10CF500065600C2001F00AFA0D210C2001F0B2F9F5
:10CF6000002000F0FFFC051EFAD1782000F0A6FC9E
:10CF7000782000F047FB642000F05AFC01A800F084
:10CF800033FB6B46981D00F057FA6B46D81C00F037
:10CF9000A5FA00F035FE1B48FFF7B8FF00F03EFE93
:10CFA000194801F059F9194801F05CF9092001F01C
:10CFB0005BF8642000F0C0FE012000F0D3FD0120EA
:10CFC00001F026F93221072000F0E8FE10222900A6
:10CFD00002A8666808F0C8FC0D4B02A902930D4B2D
:10CFE000300005930395049407F04BFE059B002B3E
:10CFF00002D09B6802A89847200006B070BDC046CA
:10D0000030CB02000428002099CE01009BCE010005
:10D010009FCE010024CB020010B5002801D01CC90E
:10D020001CC010BD7047030010B5426899685010CD
:10D0300008181B68D20701D50268D358984710BD5D
:10D040000023C35670B504000D00013304D124221F
:10D050000549064807F05AFD6368002D02D0E268D2
:10D06000136070BD2269FBE75CCB0200AACB020013
:10D070000023C35610B50400013304D12C22054906
:10D08000054807F043FD636960681B681840431E4C
:10D09000984110BD5CCB0200AACB020070B5C668F7
:10D0A00005003000FFF7E4FF01240100300061407B
:10D0B000FFF7C6FF2D692800FFF7DAFF2100414086
:10D0C0002800FFF7BDFF70BD70B504000D0016000D
:10D0D0000021182208F048FC32002900200007F047
:10D0E000D9FB200070BD000070B50400184B01256D
:10D0F00008330360183007F06BFB2000154B10223B
:10D10000A3610021403008F02FFC230050331D7034
:10D1100000231820237106F047FF06002A0015217E
:10D12000FFF7D2FFA660182006F03EFF06002A0097
:10D130001621FFF7C9FFE660182006F035FF06004C
:10D140002A001721FFF7C0FF2661200070BDC046EE
:10D150004CCB020094E1020070B50C0005000021E8
:10D16000C068630700D40121FFF76AFFA8680021A7
:10D17000A30700D40121FFF763FF012128690C42B6
:10D1800000D00021FFF75CFF70BD10B5040018301F
:10D1900007F0F9FC00212000FFF7DEFF10BD0000C2
:10D1A00010B50400034B083303601830FFF794F9FF
:10D1B000200010BD4CCB020010B50400FFF7F0FFBB
:10D1C000200006F005FF200010BD73B5040000929A
:10D1D00001930D0008F0EEF8636B002B06D12300DD
:10D1E00038331B78002B01D007F014FC26002836BA
:10D1F000AE420DD03000FFF795FD002E08D0EB6851
:10D20000002B03D05B68290030009847EB6863630C
:10D21000009A019B200007F09EFC08F0E1F873BD26
:10D2200030B505000400183585B0280007F0ABFCC8
:10D2300020000421FFF790FF10220021684608F02B
:10D2400093FB094B094A009300230193084B69465D
:10D250000393280000230294FFF7B7FF6846FFF707
:10D2600061FD05B030BDC0469DD0010090D00300E7
:10D2700040CB020010B5002204000270431C1134A0
:10D280001A700133A342FBD1418210BD37B5174C50
:10D29000631DDB7F002B14D06B46DD1D00280ED0F4
:10D2A00002232B7023680122597C636818782B00B5
:10D2B00001F018F8002816D12B7863743EBD287051
:10D2C000F0E7A27A002A0ED0002809D0627C18006C
:10D2D000002AF3D16B460132DA716B46DD1DE1E7BE
:10D2E0006B46D871F9E701204042E7E7102800209B
:10D2F00037B5504CA37A002B02D1012040423EBDED
:10D300006B46DD1D00232B7023680122597C636866
:10D3100018782B0000F0E6FF0028EED123680122E8
:10D320005979636818782B0000F0DCFF0028E4D1FD
:10D33000236801221979636818782B0000F0D2FF66
:10D340000028DAD16368187823681979631DDB7FB8
:10D35000002B36D00C2301222B702B0000F0C2FFD3
:10D360000028CAD1323007F0EBFFC0232B70A37A1C
:10D37000DB0701D5E0232B7023680122197963684C
:10D3800018782B0000F0AEFF0028B6D1637C002B8C
:10D3900000D002232B7023680122597C636818781F
:10D3A0002B0000F09FFF0028A7D12368287059792F
:10D3B000636818782B00012200F094FF431E984107
:10D3C0009CE7042301222B702B0000F08BFF002828
:10D3D00000D092E7A37C002B02D1A37ADB0726D4EE
:10D3E00040232B70236801221979636818782B0079
:10D3F00000F078FF002800D07FE7323007F0A0FF70
:10D40000637C002B00D001232B7023680122597C00
:10D41000636818782B0000F065FF002800D06CE7E7
:10D42000230022681033517962681078C3E76023C3
:10D43000D7E7C0461028002000B5094A0300107A3B
:10D440000022032805D8FA220CF08CFA0302060801
:10D45000520000201A8000BD9200FAE7D200F8E7DF
:10D460001028002037B51C4CA37A002B02D10120D4
:10D4700040421EE0FA235B00984226D01AD8FA28D0
:10D48000F5D16B460022DA716B46227ADD1DDB791D
:10D490000020DB089A420CD0236801229979636846
:10D4A00018782B0000F01EFF0028E0D12B78DB0855
:10D4B00023723EBDFA239B00984209D0FA23DB0079
:10D4C0009842D4D16B461822DDE76B460822DAE792
:10D4D0006B461022D7E7C0461028002000B50E4A40
:10D4E0000300507A032813D80CF03CFA020C0E10FB
:10D4F000022100201970D27C824202D01A78520098
:10D500001A7000BD0421F4E70821F2E71021F0E7CA
:10D5100001204042F5E7C0461028002037B5194CDD
:10D52000A37A002B02D1012040421CE0042822D023
:10D530001AD80228F7D16B460022DA716B46627A5C
:10D54000DD1DDB790020DB089A420CD02368012224
:10D55000D979636818782B0000F0C4FE0028E2D166
:10D560002B78DB0863723EBD082807D01028DAD17B
:10D570006B461822E1E76B460822DEE76B46102275
:10D58000DBE7C0461028002037B5164DAB7A002BDC
:10D5900002D1012040423EBD6B46DC1D0123BB2869
:10D5A0000CD80223612809D80323292806D804238C
:10D5B000132803D80523092800D806232370EA7A04
:10D5C000237800209A42E6D02B68012299786B6874
:10D5D0001878230000F086FE0028DAD12378EB7259
:10D5E000D9E7C04610280020054A531DDB7F002BD9
:10D5F00003D1D28902801800704701204042FBE726
:10D6000010280020F8B50024134D6B1DDB7FA342CA
:10D6100020D1AC7A002C18D00123984304402F7CF1
:10D620002C74241A631E9C4106006442002802D117
:10D63000287D00280CD00120FFF728FE002E09D0FD
:10D64000FFF756FE002805D02F740124644201E044
:10D65000FFF71CFE2000F8BD1028002073B5324DE6
:10D660000600AB7C0020B3420FD06B680122187813
:10D670002B6819796B46DC1D2300002E34D000F096
:10D6800055FE002802D00120404276BD202223789A
:10D69000934323702B681F3A19796B68187823001D
:10D6A00000F020FE0028EED1033007F049FE0223EF
:10D6B0002370EB1CDB7F002B01D0822323702B1DFA
:10D6C000DB7F002B03D030232278134323702B6899
:10D6D0000122D97D6B681878230000F003FE002832
:10D6E000D1D1AE740020D0E700F020FE0028CAD1CE
:10D6F000A97A23782022C90714D5134323702B68F5
:10D70000012219796B681878230000F0EBFD0028DE
:10D71000B9D1033007F014FEEB1CDB7F002BCDD01A
:10D720008023CBE79343E9E71028002037B5174C57
:10D730000500231DDB7F0020AB4220D06B46073362
:10D7400085421DD030221A70A27C002A03D002220A
:10D7500019780A431A70E21CD27F002A04D0802272
:10D76000197852420A431A702268D17D6268107893
:10D77000012200F0B7FD002804D10434E5773EBD56
:10D780001D70E1E701204042F9E7C0461028002063
:10D7900073B50600282802D90124644213E001ACC5
:10D7A000224D002811D1FFF7C1FFE023DB002380C9
:10D7B0002B680222597D6B681878230000F092FDD7
:10D7C000041EE9D12875200076BD0120FFF7AEFFC9
:10D7D000202323700023012E02D0052E1BD8012305
:10D7E00005206370FFF7D0FE072362789201134390
:10D7F00063702B680222597D6B681878230000F053
:10D8000071FD041EC8D10823AB72073B28732B752A
:10D81000FFF7F8FED7E7142E03D802230A2063701F
:10D82000E0E7032314206370DCE7C04610280020E3
:10D8300073B5214D0600AB7A002B03D1012464425D
:10D84000200076BD6B1DDC7F002CF7D12B7D002BDB
:10D8500009D0431E272B03D8C0B2FFF799FFEFE78B
:10D860002000FFF795FFFA23311C9B009E4200D950
:10D87000191C6B46DE1D8BB2042B00D20421FA204A
:10D8800089B280000CF002F92B68013830705978A9
:10D890006B6801221878330000F024FD041ECDD1FE
:10D8A000FA203178800001310CF0F0F880B2E88184
:10D8B0004008FFF769FEC3E71028002073B5702306
:10D8C0006A4606000340D41D002B12D00123244DCC
:10D8D00023702B680122597D6B681878230000F0B3
:10D8E00001FD002809D000230124AB72644220000E
:10D8F00076BD0028EBD14023E9E74022237893430B
:10D900002B73164229D02070B30603D40223227849
:10D9100013432370F30603D40123227813432370A7
:10D92000330703D438232278134323702B68012252
:10D93000997D6B681878230000F0D4FC041ED2D1C6
:10D94000082332009A4301D0FFF7F0FE0023322073
:10D95000AE722B7507F0F4FCC9E704232370D3E7FC
:10D960001028002037B580236A46284C137023689E
:10D970000122597D636818786B4600F0B3FC051EE0
:10D9800003D00124644220003EBD642007F0D8FC8F
:10D990006B461D7023680122597D636818786B46B9
:10D9A00000F0A0FC051EECD10123A08220005B4208
:10D9B000E3812374A360023323736384FE336382A1
:10D9C00016300C22290007F0CFFFFA206562C00054
:10D9D000FFF748FD0028D4D10230FFF79FFD002853
:10D9E000CFD12A30FFF7D0FD0028CAD13230FFF75F
:10D9F0001FFF0028C5D1FFF705FE0028C1D1FFF7A2
:10DA00002DFE041EBDD1FFF759FFBCE710280020F2
:10DA100073B50D00161E02D10120404276BD104C98
:10DA2000A37A002BF8D0020A01AB1A70C0B2626868
:10DA30005870401851898842EEDC21681078C97E00
:10DA4000022200F04FFC0028E6D12368EAB2197EDA
:10DA500063681878330000F045FC431E9841DCE70A
:10DA60001028002073B50D00161E02D1012040427F
:10DA700076BD104CA37A002BF8D0020A01AB1A70C5
:10DA8000C0B262685870401851898842EEDC216843
:10DA90001078C97E022200F025FC0028E6D1236818
:10DAA000EAB2197E63681878330000F03FFC431E29
:10DAB0009841DCE710280020F0B587B00593264B8D
:10DAC0000290039104920633DC7F002C02D00120E7
:10DAD00040421AE0039B002BF9D0029B9C4216D3D4
:10DAE000049A1E4B120A1A701B4C049A5A70226830
:10DAF000517F62681078022200F0F4FB0028E6D122
:10DB00000122A31DDA77059BE38407B0F0BD029BD9
:10DB10001D1B102D00DD1025039BAEB21B191A0032
:10DB2000310020000193FFF773FF0028CFD10C4F85
:10DB300031003A002000FFF795FF0028C7D13200DE
:10DB40003900019807F0E5FE002802D1A419A4B21B
:10DB5000C3E70220BCE7C04610280020962B002017
:10DB6000862B002073B51C4D04006E1DF37F002032
:10DB7000A3421ED084421DD0AB1DDB7F834228D040
:10DB8000FFF784FB0020FFF769FDE88CFFF750FEEC
:10DB90006B4600246A6807331C7010782321012229
:10DBA00000F0A0FB0120F077FFF770FBFFF7A0FB70
:10DBB000200076BD2000FFF769FB6B462A7C073307
:10DBC0001A706A6823211078012200F08BFBF47729
:10DBD000ECE701204042ECE7102800201FB50924A3
:10DBE0000649220001A807F0A3FE972001AA210000
:10DBF000C000FFF70DFF04B010BDC04614CC0200FA
:10DC0000802210B5C823D20002490348FFF754FF11
:10DC100010BDC04648CC0200F60B0000F0B53E4BEC
:10DC200087B002AA13806C233C49937003AB198020
:10DC30002C2199703A4904AF398076210500684655
:10DC4000B9703849032681826621817529006C46A6
:10DC500031408C46515C0170E8083040115C6170C5
:10DC6000A9093140525CA27062469A5C01AC2270F4
:10DC70001A5C5B5C627031006A462B48A370FFF748
:10DC8000C7FE002803D00120404207B0F0BD2200AB
:10DC900031002648FFF7BCFE0028F4D132003900DD
:10DCA000684607F045FE320005A9200007F040FE57
:10DCB0006B0708D56B461A78012369461A430A7028
:10DCC000227813432370AB0608D56B465A7801239C
:10DCD00069461A434A70627813436370EB0508D5AE
:10DCE0006B469A78012369461A438A70A2781343D7
:10DCF000A37088206A460321C000FFF789FE002830
:10DD0000C1D1220003210A48FFF782FE0028BAD1C0
:10DD1000084B1D81B9E7C0464CCDFFFF0CC9FFFF82
:10DD20003656000026460000260400002A040000A3
:10DD300031040000982B002030B5144987B004004E
:10DD40000C22093103A807F0F3FDC82C03D90120E8
:10DD5000404207B030BD002301AD2100C8202B7028
:10DD60000BF094FE013868702A0002210848FFF782
:10DD70004FFE0028EBD103AA0C210648FFF748FE0E
:10DD80000028E4D1044B9C81E3E7C04614CC020098
:10DD900016020000C10A0000982B002073B5050090
:10DDA000430701D101208CE0C823DB009942F9D858
:10DDB00008000CF061FE44490CF026F96B46DE1CAD
:10DDC000041C3000FFF78AFB3378042B40D031D895
:10DDD000022BE7D18D21201CC9050CF0EDFA0CF0C7
:10DDE0001BF83A4986B2201C0CF0E6FA0CF014F845
:10DDF00001AC80B2330A2370030A6670A370E0702E
:10DE0000EB0739D40226354210D0EC202200310035
:10DE10004000FFF7FDFD0028C4D16B4629309A1D54
:10DE20003100FF30FFF7F4FD0028BBD1042028406B
:10DE300035D176BD082B15D0102BB3D18A21201CEB
:10DE4000C9050CF0B9FA0BF0E7FF214986B2CAE721
:10DE50008C21201CC9050CF0AFFA0BF0DDFF1D4929
:10DE600086B2C0E78B21201CC9050CF0A5FA0BF087
:10DE7000D3FF194986B2B6E7EA202200022140000A
:10DE8000FFF7C6FD002800D08CE76B4625309A1DB1
:10DE90000221FF30FFF7BCFD0028B3D082E7EE205F
:10DEA000220002214000FFF7B3FD002800D079E7EF
:10DEB0006B462D309A1D0221FF30FFF7A9FD431E4E
:10DEC00098414042B5E7C046000048430000404644
:10DED0000000C0440000C0450000404507B50123D4
:10DEE0006A4603400732002B12D11370830703D513
:10DEF0000C2311780B431370430703D503231178C8
:10DF00000B431370A42001214000FFF781FD0EBDDB
:10DF10003023EAE707B50123002804D0031C0428B6
:10DF200000D90423DBB26A4650200732013B0121AD
:10DF3000FF301370FFF76CFD0EBD07B505210BF028
:10DF40001BFD01AA80B2030A5070EF20022140009D
:10DF50001370FFF75DFD0EBD07B505210BF00CFD3D
:10DF600001AA80B2030A5070ED2002214000137014
:10DF7000FFF74EFD0EBD13B50C00FA2189000BF022
:10DF800085FD604301AA0316137003145370D0700B
:10DF90000312AE20042140009370FFF739FD16BD37
:10DFA00007B505210BF0E8FC01AA80B2030A507006
:10DFB000AD20022140001370FFF72AFD0EBD07B50A
:10DFC00005210BF0D9FC01AA80B2030A5070AC20E5
:10DFD000022140001370FFF71BFD0EBD1FB5002886
:10DFE00003D0FFF7FBFD05B000BD0649092215313E
:10DFF00001A807F09DFC972001AA0921C000FFF7A6
:10E0000007FDF0E714CC020007B5002809D0084B43
:10E01000019301AA04210748FFF7FAFCFFF768F90A
:10E020000EBD04228B2101A807F09EFCF1E7C0463B
:10E03000C0C2C4C6980A000007B5002809D0084B22
:10E04000019301AA04210748FFF7E2FCFFF750F90A
:10E050000EBD0422A32101A807F086FCF1E7C0460B
:10E06000202830389E0A0000F0B587B05D4B03AC25
:10E07000050022000421682003934026FFF7C8FC16
:10E08000A3232E40237000D190E01D33637008332A
:10E09000A370063BE370C0235B002B40009300D1CC
:10E0A00087E0514BA380C623A371A32322000A213A
:10E0B0004E48E37123726372FFF7AAFC03232B40DF
:10E0C000019300D179E020232200012148482370E8
:10E0D000FFF79EFC2020284000D170E0FFF77EFD76
:10E0E000009B002B09D0EB0500D46BE0414B2200D4
:10E0F000042141480393FFF78BFC01273D4263D085
:10E100008B20F8232200390000012370FFF780FCE8
:10E11000FA210720FFF742FE0720FFF7DFFE380055
:10E12000FFF7F8FE6420FFF708FFFA204000FFF732
:10E1300013FFC8213148FFF71EFF2820FFF730FFEB
:10E140000A20FFF73CFFAB0747D5D9232200012166
:10E150002B482370FFF75CFC0420284000D00120EE
:10E16000FFF752FF1020284000D00120FFF764FF86
:10E170000823244C2B436381FFF7BAF8002E2ED1DD
:10E18000A673009B002B02D0A37B0633A37314233A
:10E190001D4202D0A37B1033A373019B002B02D03E
:10E1A000A37B0433A373002007B0F0BD6370A3709A
:10E1B00070E7154BA380A32376E7D82384E7FFF706
:10E1C0000DFF8DE7114B92E78B20D82322003900F9
:10E1D00000012370FFF71CFCB5E7D823B6E7062340
:10E1E000A373CEE702CAE309C4CCFFFFA70A00006D
:10E1F000B60A0000B28BB69BA20A000009E3CA026D
:10E200003D070000982B0020A3A3FFFFB080B4902F
:10E2100030B50F4C87B0210005001E310B22684637
:10E2200007F086FB21000B22293103A807F080FBB1
:10E23000012D05D06A46022D03D00120404204E0A2
:10E2400003AA0B210348FFF7E3FB07B030BDC0462C
:10E2500014CC0200820A0000014B186000207047B5
:10E26000982B0020014B586000207047982B00200D
:10E270000023C35610B50400013304D12C220549F4
:10E28000054806F043FC636960681B681840431E3C
:10E29000984110BD5CCB0200AACB02000423C0460B
:10E2A000C046C046C046C046C046C046C046C0463E
:10E2B000C046C046C046C046C046013B002BEED11A
:10E2C0007047000010B5054C0A000100200005F061
:10E2D0008DFA0349200005F043FA10BDA82B002059
:10E2E000A0860100F7B505000F001E000E4C6D0062
:10E2F0002000019205F0F4FAE9B2200005F098FB45
:10E300003900200005F094FB3500019AAB1B9A42BE
:10E3100004DC200005F0ECFA0020FEBD2978200086
:10E3200005F086FB0135F0E7A82B0020F0B51400BE
:10E330000F221E00002385B00B4F40006A44C5B277
:10E340001170380000932900013305F041FB0123CF
:10E350003200009329002300380005F0F7FA201A54
:10E36000441EA04105B0F0BDA82B0020F0B5294FF8
:10E370008FB03B6801900E00002B05D0A1211F2219
:10E38000C9005A5024495A5002A8019906F07DFA52
:10E3900002A8FFF76DFF002832D1204808F086FA66
:10E3A00008AC1F4808F082FA3100200006F087FA16
:10E3B00012250023E356013304D1242219491A48B7
:10E3C00006F0A4FB236962681A60FFF767FF002369
:10E3D000E356013304D124221249134806F096FB78
:10E3E000E3686268013D1A60FFF758FF002DE0D135
:10E3F00002A8FFF73DFF002802D10C4808F056FAAA
:10E400003B68002B03D031000198FFF75BFF002031
:10E410000FB0F0BDA82B00200C0500003ED8020074
:10E4200069D802005CCB0200AACB020080D80200AF
:10E43000002370B5194CE356013304D12422184946
:10E44000184806F063FBFE20E368626880051A60E6
:10E4500006F06AFF582005F0A7FD0500FEF744FE10
:10E46000602005F0A1FDFEF7C9FC07212800FEF79A
:10E4700073FE902005F098FD04002900FEF766FB6E
:10E4800028000021FEF768FE2000FEF7C9FB2000EF
:10E49000FEF7E0FB2000FEF7D8FBF8E7B82B0020E2
:10E4A0005CCB0200AACB020010B5054C182200215B
:10E4B000200007F059FA1E21200006F000FA10BDD6
:10E4C000B82B00202EDF704732DF704733DF7047F4
:10E4D0004CDF70470120054B10B51A78504018707A
:10E4E000034B1B68002B00D0984710BDD42B002095
:10E4F000D02B00200C4B70B5050015200C001A60C5
:10E50000FFF7E2FF00280ED129001530FFF7DEFFEC
:10E51000002808D11530FFF7D5FF002803D12100CE
:10E520000330FFF7D5FF70BDD02B002010B50B4C8A
:10E53000200006F04DF92000094B10220021283060
:10E54000236007F011FA2300012238331A700549BD
:10E55000054A200005F0CAFB10BDC046D82B00209C
:10E5600094E10200D9C40100002800207FDF704739
:10E5700082DF7047A7DF7047A9DF7047AADF7047C7
:10E58000002070470020704700207047F7B5040056
:10E590000E006A468178204801F096FA00283AD1A8
:10E5A0000C2362781D4F5A431D4B9B189B7A5B06C8
:10E5B00005D4022E03D01B4F012E00D01A4F1C256C
:10E5C000A3781A496B432A00C91868460023B84744
:10E5D00000281ED1022E1ED00C226178104B4A4317
:10E5E0009B189A7A4030694382439A72104B2A00F2
:10E5F000591868462B00B8470C23227821005A434B
:10E600000C4B68469B189B7A0B4A9B009B5898477B
:10E6100001E0022EF0D1F7BDA42C00208DFB0100FB
:10E62000402C002015FB010081E501006C2C00202E
:10E63000242C0020182C0020D4D80200F7B5182272
:10E640000190437828485A4381184C68274F002C82
:10E6500030D00C2159437918897A4DB2002D28DA2F
:10E66000490626D41500A6B20835145845190C22BF
:10E670005343FB181889320023002900FFF77CFF61
:10E680000B281AD10C22019B29005B785343FB18FD
:10E69000188932000123FFF76FFF0C21019B144AF8
:10E6A0005B784B43FF183889FFF764FF00280AD1D5
:10E6B000FEBD002426002500D9E7002800D00D4823
:10E6C000012CF5D1E9E702220B4BC318934308D084
:10E6D000082806D0113843425841064B40421840A2
:10E6E000E6E70448E4E7C0464C2C0020402C00201C
:10E6F000FFFF000041800000FECFFFFF10B5FFF7D5
:10E700009DFF10BDF0B589B002AB9D1D0E230C27F7
:10E71000019000912B804B78224A7B43D3181889B3
:10E720002A00032304A9FFF729FF00281AD118267D
:10E73000009B1D4C58782A8870430830201804A983
:10E7400007F0E7F8009B5B7800280ED15F43154A7D
:10E75000D7190222B97A114004D173433200E0186C
:10E7600007F002F9002009B0F0BD5E43A6197268F7
:10E770000E4F002A00D10E4F182603227343E25099
:10E780002A88E11808334A60E01804A907F0D0F895
:10E79000009B320059780198714338236118B847BB
:10E7A000E0E7C046402C00204C2C00208DFB0100EF
:10E7B00015FB010010B5FFF7A5FF10BDF8B5182532
:10E7C00007004878094C68430E00201838232A00B7
:10E7D000390001F017FA002806D173785D436419F7
:10E7E0006368013300D16060F8BDC0464C2C002046
:10E7F00010B5FFF7E3FF10BD002070470020704701
:10E80000002070470020704770B51C254543060066
:10E8100028000D4C1130201806226419002107F041
:10E82000A3F810220021200007F09EF8FF23237494
:10E83000A376013BFF3B23830233B340034A1168B5
:10E840009943116070BDC0466C2C0020682C0020DC
:10E8500037B581B205006A46074801F035F9041E54
:10E8600008D15421684601F019FA041E02D128008B
:10E87000FFF7CAFF20003EBDA42C0020F0B51C000D
:10E88000454B93B01B68070000910192002B41D0CB
:10E89000189B542B3ED80021404B06AE0393189B87
:10E8A00004AA3F4831700B940A9301F00DF9051E3C
:10E8B00006D1082204A9380007F02BF800280ED052
:10E8C00004AA0121364801F0FFF8002809D10822E6
:10E8D00004A9380007F01DF8002802D1012503AB78
:10E8E0009D7003ADA978FF2914D0009B032B15D18F
:10E8F000189A06AB542A0FD1343A1A7003221978A9
:10E900000A431A7009AB0793234B019A1B6806A9A7
:10E910002800984713B0F0BD4022EEE7214BE31AE0
:10E92000372B16D82048019A0368002A03D10132F8
:10E930008A401342EED001228A4093432022036092
:10E9400006AB1A70009A06AB1978022A21D101226F
:10E95000D6E7164BE31A1B2B08D82023337000236D
:10E960006B700CAB0B9318230A93EBE71048241A37
:10E97000172CCFD83023337000236B700133EB702A
:10E980000C4B997A02231940DCD1182206F0ECFFD7
:10E99000D8E70222B4E7C046182C002000FFFFFF92
:10E9A000A42C00206C2C0020682C0020242C00209B
:10E9B0004C2C0020402C0020F0B5050085B000282C
:10E9C0005CD000242E4B01261C605C729C72FF23DD
:10E9D0002C485B427642438121000722068106F0E3
:10E9E000C3FF21001822284806F0BEFF2000FFF7D1
:10E9F0000BFF264C01202670FFF706FFFF236370F4
:10EA0000234B244C0193244B21006846009300F0D3
:10EA1000FFFF002827D10127204E2B783770002BCD
:10EA200023D1010002AA200001F04EF8002818D1DD
:10EA30001B4D03001C2202A9280001F0E3F8002866
:10EA40000FD102AA3900200001F03EF8002808D1B9
:10EA50001C3503001C2202A9280001F0D3F800286D
:10EA600001D00023337005B0F0BD6B469988DB8878
:10EA70002000594389B201F011F9F4E70948F2E79F
:10EA8000182C0020402C00204C2C0020642C00204E
:10EA900054000200A42C00207DE80100662C002018
:10EAA0006C2C00200E800000F8B5174B06001B7878
:10EAB0000F00002B22D0002822D0002920D00B6884
:10EAC000002B1DD0114D2C68002C1BD128000531C6
:10EAD00008C0052206F02CFF0121022204203B7908
:10EAE000AB722B7A8B43134383432B72EB7919431D
:10EAF0000A4382432000EA713470F8BD0448FCE701
:10EB00000448FAE70448F8E7662C0020182C002097
:10EB1000088000000E80000004800000154B1B7868
:10EB2000002B22D000281ED000291CD00378002BF7
:10EB30001BD1114B1B68002B17D04278002A16D12D
:10EB40000E4B9B7A012B12D02420184003D00123B6
:10EB500010000B7070475BB2002B02DA02230B70BF
:10EB6000F8E70870F6E70648F4E70648F2E70648D3
:10EB7000F0E7C046662C0020182C0020402C002016
:10EB80000E8000000880000010800000344BF7B5B4
:10EB90001B78002B61D000285DD000295BD00C6869
:10EBA000002C58D08E68002E55D00378002B54D1FD
:10EBB0002C4B1B68002B50D02B4B987ADF7A02230A
:10EBC00018400190002F23D00B7B002B13D1002283
:10EBD0000D79954206D0254DA87E800702D41035C8
:10EBE00025600132012F18D10198002815D000208E
:10EBF0000A710B73FEBD1D4D0122AB7E9C46604623
:10EC000000231042E3D13560194D2B701300DEE76D
:10EC1000019B002BD8D03B003A00087B98420CD9CE
:10EC20001248050036352F7801252F4205D19F0067
:10EC30001C30B8510E48C5545B1908799042D6D99A
:10EC40000A48050036352D78AD07D0D495002C3014
:10EC500028510132CBE70748CCE70748CAE7C0464E
:10EC6000662C0020182C0020402C00206C2C00204A
:10EC7000642C00200E800000088000000F4B10B5AF
:10EC80001B78002B18D0002814D00078002813D14E
:10EC90000B4B1B68002B0FD00A4CA37EFF2B01D01F
:10ECA000FFF7D6FD36342378FF2B02D00120FFF783
:10ECB000CFFD10BD0448FCE70448FAE7662C0020AD
:10ECC000182C00206C2C00200E8000000880000012
:10ECD00013B5040081786A460B4800F0F5FE002861
:10ECE00010D11C226378094853436946C0181300A9
:10ECF00000F088FF064B074A9B7A21009B009B5837
:10ED00006846984713BDC046A42C0020242C002040
:10ED1000182C0020C4D80200FF23F0B58FB0039355
:10ED2000C04B05001B78002B3ED0BF4B1B680193E6
:10ED3000002B39D0031D06932A2302AA9382BB4BD2
:10ED4000BB4C04930388A27A102B29D081889007AA
:10ED500007D5B848814200D13DE12089884200D1E1
:10ED600039E1172B00D1D3E000D93AE1132B63D05E
:10ED7000142B3FD0112B17D1022311009943A172FC
:10ED800004AD12072ED54BB2002B03DA0021280068
:10ED9000FFF7FCFB1023A372023302AA137317E0E0
:10EDA0000126324200D053E10FB0F0BDA24A5B0809
:10EDB000D35CFF2B00D003930822A17A039B0A4364
:10EDC000DBB2A272E37202AA04A89372FFF780FF7B
:10EDD000002472E02A8B974B9A4200D063E13E00F8
:10EDE0000396E9E7A878FF28D4D0FFF70DFDFF23AD
:10EDF000AB70CFE7E37A914EFF2B10D1EB89318BCB
:10EE0000994217D0B18E994209D101230821DBB272
:10EE10000A4304A8E372A2728370FFF759FFE37AF2
:10EE20008749FF2B00D10021A88800233200FFF77B
:10EE30009FFBB9E70023E9E7132302A90B730F3BFC
:10EE40001A43E37AA2727D4EFF2B53D1B37EFF2B80
:10EE500007D0330036331B780127FF2B02D0794CC3
:10EE600015E000271C20784323783018022B3ED071
:10EE7000FD23103083720722210006F059FD03ABF9
:10EE80001F70039B04AADBB29370E372002400217D
:10EE9000674B0B91DA7A1C235343F618684B0C9698
:10EEA0000893614B0D9109910A911A1DA88808AB2E
:10EEB000FFF75CFB002800D076E75B4B22001B6865
:10EEC00005A904A8984702AB1B7B122B00D06BE767
:10EED0005748837A012B00D166E701235B42038107
:10EEE000FE3B43810722002106F03EFD5CE7FE2346
:10EEF0008376C4E71623544802AA137300210E2216
:10EF0000083006F031FD4023A27A1343A372BDE717
:10EF10000126454B44495B7A1420B3434B720423CA
:10EF200043499A4302AC8A722073A879002804D01E
:10EF3000C87AFFF78DFCAC79BFE7E879184200D1B9
:10EF400046E704ACA078FF2800D141E708231A4324
:10EF5000EB7A8A729B0706D51C224243374B9B18DB
:10EF60009A7EB2439A76CB7AFF2B00D130E71C23EE
:10EF70004343324D0A78ED18022A0DD028000722AB
:10EF8000103006F0D5FC0222AB7E9343AB76012114
:10EF90002000FFF7FBFA1BE7294B01225B8A2B833A
:10EFA000AB7EF2E780235B421A43A272953302AA3A
:10EFB00013731D4B254A9B7A04A89B009B589847C6
:10EFC00006E7194B214A9B7A04A89B009B58984757
:10EFD000EAE61323E1E6E07A04A98870002048708D
:10EFE000BFE61C2BF5D0522BEBD0182B00D0DBE664
:10EFF000AB79112BD6D11307D4D513480E2200219B
:10F00000083006F0B1FC162302AA1373A27A4A3321
:10F010001343A372044B5A7A02231343024A5372D6
:10F02000D6E6C046662C0020182C002000FFFFFF0B
:10F03000402C0020FFFF0000642C00206C2C0020DE
:10F04000242C0020438000004C2C0020B4D8020067
:10F05000112302AA1373002353728388871D23810F
:10F0600002230722A3723900200006F061FC6B7DA9
:10F07000334200D09AE60E4D002F00D1AAE62800B8
:10F0800007221030390006F044FC002801D10600A8
:10F09000A6E6280007222C30390006F03AFC0028AA
:10F0A00000D095E69CE6AA8E9A4200D090E697E6BC
:10F0B0006C2C002030B5002913D00A78002A12D118
:10F0C0000A4B1B68002B0ED0FF23094C8B7025893F
:10F0D000FA3B854203D14A70E37A8B701300180023
:10F0E00030BD044BFBE7044BF9E7C046182C002069
:10F0F000402C00200E800000088000004DDF70478B
:10F1000030B500230D0014008DB06946C21AD27BC1
:10F110005A540133102BF8D100210D2204A806F017
:10F1200023FC6A462B786846D3776B789377AB7865
:10F130005377FFF7E3FF2F236B441B7823702E23B5
:10F140006B441B7863702D236B441B78A3700DB048
:10F1500030BD30B50378040085B00D000020022BCF
:10F1600016D1611C032201A806F0E2FB211D032237
:10F1700003A806F0DDFB02AA03A92800FFF7C0FFE1
:10F18000032202A901A806F0C4FB43425841C0B2C1
:10F1900005B030BD064B10B5586980235B05421C95
:10F1A00004D0196989B20AF0E7FB10BD5869FCE781
:10F1B0000010001029DF704728DF7047034B10B59F
:10F1C0001B78034A9B009B58984710BD052D0020D3
:10F1D000E4D802000B0037B50C24020018009D682B
:10F1E00009786C43044D08302D680095034D1B6968
:10F1F0006459A04737BDC046AC2C0020B02C00207D
:10F2000080225205116914220E4B10B5187889B26C
:10F2100042439B181A69501EDA881B898018C0184F
:10F220000AF0AAFB084B1A680123824207D3002385
:10F23000824204D1054B1B6858424341DBB218009F
:10F2400010BDC046BC2C0020E82C0020082D00205A
:10F25000082310B5034A116899431160FFF7AEFF08
:10F2600010BDC046EC2C0020094910B50A681307F0
:10F270000AD4930702D5012313430B600222054BE6
:10F280001A70FFF79BFF10BDFFF7E2FFFBE7C046D8
:10F29000EC2C0020052D0020064B10B51B681B0729
:10F2A00005D40122044B1A70FFF788FF10BDFFF749
:10F2B000CFFFFBE7EC2C0020052D002010B5002827
:10F2C00006D0112805D10823094A11680B431360A1
:10F2D00010BD1423074A1178594304315118FFF720
:10F2E00079FF0422044B1A7000F096F8F0E7C0464C
:10F2F000EC2C0020BC2C0020042D002010B5FFF7C2
:10F3000059FFFFF7DBFF10BD70B514248025114BAA
:10F310006D051A78104E54431C192B6921692089F8
:10F32000E2889BB2401861699A420DD92C69A4B257
:10F33000141B2A69091992B292082018FFF7DEFF00
:10F340002B699BB2336070BD9208FFF7D7FFE3884B
:10F35000F8E7C046BC2C0020FC2C002070B58025AE
:10F36000094B6D052A691B6894B2013B5C43FFF7AA
:10F3700011FF2B69411E9BB25943044B20001A68B0
:10F38000FFF7BCFF70BDC046E82C0020F02C002029
:10F39000142270B580260E4B760519784A439B18C7
:10F3A0001A89DC881B69A4183169E418200089B225
:10F3B0000AF068FB0D00FFF7EDFE3369411E9BB2BA
:10F3C0005943044B49191A682000FFF797FF70BD95
:10F3D000BC2C0020082D002010B5FFF7DBFE80229A
:10F3E000074952051369146909681269A4B2614397
:10F3F00092B2441E98B292086043FFF77FFF10BD9F
:10F40000E82C002010B5034B1868FFF7D5FEFFF776
:10F4100055FF10BDE82C0020F0B52B4B85B01878B7
:10F4200003280ED80AF09EFA020F124D0023274A35
:10F430001360274A1360274B5B78002B01D000F044
:10F44000F5F805B0F0BDFFF75FFFFAE7224C142591
:10F450002368802701930123019A7F059A431D4B5E
:10F46000226002921A78396955435D192B6989B275
:10F47000180003930AF080FA184B06001860039BEB
:10F480003969581EEB8889B2C0180AF075FA8642AD
:10F4900010D10223029A13432360114B1A68114BB7
:10F4A000002A0CD121680232114208D11A70FFF7EC
:10F4B00085FEC6E70323019A9A431300ECE7002276
:10F4C000F4E7FFF79FFFBCE7042D0020002D00208C
:10F4D000FC2C0020BC2C0020EC2C0020E82C002070
:10F4E000F02C0020052D002014230C20F0B58025E1
:10F4F000484A85B011786D054B43D318DF68464AFA
:10F500007843121814895089526860438218296917
:10F510001C890292DA881E6913199B190193002332
:10F5200003923E4A89B2136030000AF0ABFA2A0017
:10F53000002918D12B6903999BB2994205D0029BEF
:10F5400001998B424ED1002C58D11169300089B2FB
:10F550000AF012FA324B18600323324A1370FFF795
:10F560005BFF05B0F0BD022FEFD02969A01989B269
:10F570000AF088FA2C4B89081960019A029B2969C4
:10F58000934220D089B201980AF07CFA00291AD05F
:10F5900080246B4664052169188989B29F880AF026
:10F5A000EBF926690500B1B238000AF0E5F9ADB211
:10F5B00080B2854209D16B466A461B8992889B1AA4
:10F5C000164A9B0813600223C7E7236921693800A4
:10F5D00089B29CB20AF056FA89B2641A0F4BA40899
:10F5E0001C60F0E7022FB0D02969A01989B20AF097
:10F5F00049FA0D4B890819602969C3E7022FA4D085
:10F600002969A01989B20AF03DFA074B89081960E7
:10F610002B69D8E7BC2C0020B02C0020082D00203E
:10F62000E82C0020042D0020F02C002014220D4B8B
:10F6300010B519784A439B18D9880B4A1B79116079
:10F64000DAB2012A05D0002A02D0033B012B05D9EA
:10F6500010BD064B1A70FFF7DFFEF9E7FFF744FF16
:10F66000F6E7C046BC2C0020AC2C0020042D002066
:10F67000F7B5124E0193757808AC27880424022D43
:10F6800019D034786419012C00DD023C14235C434A
:10F6900034196261220020710C3209C909C2019B30
:10F6A0002781E3800024064B01351B787570A34247
:10F6B00001D1FFF7BBFF2000FEBDC046BC2C0020DF
:10F6C000042D002070B51424114D002029786143C9
:10F6D00004316918FFF77EFD2300002201202978FC
:10F6E0004B43EB181A71DA80D8601A615A611A819B
:10F6F0006B780918013BC9B26B70022905D02970DB
:10F70000044B1A70FFF788FE70BD2A70F8E7C046F8
:10F71000BC2C0020042D00201422084B10B51978B1
:10F720004A439B181B79042B02D0FFF7CBFF10BD77
:10F730000122034B1A70FFF76FFEF8E7BC2C002084
:10F74000042D0020F8B508241E4E37683C4035D102
:10F7500080235B0519691C4B1D68002D1BD01422EA
:10F760001A4B89B2187842439B181A69501EDA88DE
:10F770001B898018C0180AF0FFF8154B1B689842C7
:10F7800009D1144B1C6001231F43134B37601C70BD
:10F79000FFF714FDF8BDFFF733FD002806D0002267
:10F7A0000C4B1A600C4B02321A70F1E7002D02D09C
:10F7B000094B0322F8E7FFF7AFFFEBE7FFF748FD40
:10F7C000E8E7C046EC2C0020082D0020BC2C0020CF
:10F7D000E82C0020F02C0020052D0020054B10B552
:10F7E0001B681B0702D4FFF797FF10BDFFF730FD22
:10F7F000FBE7C046EC2C002070B5174D2C682307A2
:10F8000027D4164A136801331360154B1B68002B6D
:10F8100005D00422134B1A70FFF7D0FC70BDFFF720
:10F82000EFFC002802D00F4B0222F4E70E4B1B68BE
:10F83000002B0BD0012321000A4A194003D1234396
:10F840002B601170E8E703231370E5E7FFF764FF0F
:10F85000E4E7FFF7FDFCE1E7EC2C0020E82C0020BA
:10F86000F02C0020052D0020082D00201E4B10B587
:10F870001B78022B30D0032B19D0012B13D1082178
:10F880001A4A13680B4222D11423194A11784B43A8
:10F89000D218184B1968D3885B1A9BB2D380002BFF
:10F8A00002D1FFF70FFF10BDFFF72EFDFBE7082188
:10F8B0000E4A13680B420AD10F4A136801331360D2
:10F8C000FFF79EFC002804D1FFF726FFEBE78B43F0
:10F8D0001360FFF7A1FDE6E7084B094A1B789B0080
:10F8E0009B589847DFE7C046042D0020EC2C0020F1
:10F8F000BC2C0020FC2C0020E82C0020052D002032
:10F90000F8D8020010B5FFF745FC802252051369B4
:10F910001169421E98B2504389B20AF02DF8FFF7E0
:10F920004BFCFFF7CBFC10BD70B5154C04252278BD
:10F930001300AB4303D002281FD0032800D070BDB2
:10F94000104B1B681B0718D40F490B6801330B6061
:10F95000032B07D0022A02D0FFF75EFDEFE7FFF787
:10F960002DFCECE71423094A0D201178594304318A
:10F970005118FFF72FFC2570EEE7FFF777FFDEE762
:10F98000042D0020EC2C0020002D0020BC2C002099
:10F9900010B501220024154B1C801C71DC80DA603C
:10F9A0001C615C611C811C765C831A625C629C62D7
:10F9B0009C830F4B1C80FFF7EDFB80235B051B69CD
:10F9C000821E98B2504304220A4B18600A4B200052
:10F9D0001C600A4B1C609C60094B1C70094B1C602E
:10F9E000094B1C60094B1A6010BDC046BC2C00209E
:10F9F000F42C0020F82C0020E82C0020B02C002053
:10FA0000042D0020002D0020FC2C0020EC2C0020D8
:10FA1000294BF7B51B6804000E0008205B070FD5C3
:10FA20000630002C0CD000290AD02368002B07D008
:10FA300080277F053A69A38892B2934201D90720B3
:10FA4000FEBD0F2BFBD9E288002AF8D053431B4997
:10FA50000D685B190193FFF79DFB3B69421E98B24D
:10FA60005043019B8342EAD8A2889307E7D1144B05
:10FA700004201F88012FE3D00C237B43376075607F
:10FA800010482668C1181E5080234D600A81E08806
:10FA90005B05488150431969013889B21C6909F036
:10FAA000F5FFA4B201304443044B65191D60044BBB
:10FAB00001371F800020C3E7EC2C0020F82C002029
:10FAC000F42C0020B02C0020104B30B51C6808230B
:10FAD000640717D50633002814D0002A12D0036813
:10FAE000002B11D10A4D2C68002C0DD02C894068B8
:10FAF000614309186889444368682418A14203D205
:10FB000013605160180030BD0723FBE7EC2C002088
:10FB1000B02C0020F7B505001A48046808206407D7
:10FB20002FD5063000292CD0002D2AD02C6807387C
:10FB3000002C26D114488446644624680720002CF3
:10FB40001FD0604606894489406874436F68241852
:10FB50000720A74215D2002A13D0964211D3D418F9
:10FB6000A6420EDB0324093021420AD1234208D1E8
:10FB7000274206D100930F3813000A002900FFF72F
:10FB800077FDFEBDEC2C0020B02C0020F7B5050061
:10FB90001A480468082064072FD5063000292CD0A5
:10FBA000002D2AD02C680738002C26D11448844612
:10FBB000644624680720002C1FD0604606894489CB
:10FBC000406874436F6824180720A74215D2002AA2
:10FBD00013D0964211D3D418A6420EDB0324093069
:10FBE00021420AD1234208D1274206D100930C3882
:10FBF00013000A002900FFF73BFDFEBDEC2C00209E
:10FC0000B02C0020F0B51700224A85B0126802908F
:10FC10000D009C460824530734D50634002931D002
:10FC200000282FD00C68002C2FD11B4E3268002AE0
:10FC30002BD030897289736842434968D218914247
:10FC400023D2002F21D0B8421FD36346FA18904226
:10FC50001BDB0322029B134219D16346134216D1C8
:10FC60000A40039213D161443A00029805F060FE05
:10FC70000C232A68009753430221F658039A029BEB
:10FC80002800B047200005B0F0BD0724FAE7102493
:10FC9000F8E7C046EC2C0020B02C0020F0B51E4B3D
:10FCA00005001B6885B00E0008205B0732D50630C2
:10FCB000002D2FD02B680738002B2BD1174A136843
:10FCC000002B27D01789536852896C687A43D21861
:10FCD000039294421ED20930A2071BD1E01A3900C8
:10FCE00009F0D0FE0720002914D13900300009F0B6
:10FCF000C9FE89B2072000290CD1002E0AD0039B2F
:10FD00003419A34206D3002233000092290004389C
:10FD1000FFF7AEFC05B0F0BDEC2C0020B02C0020AD
:10FD20002EDF704751DF704710DF704711DF7047DB
:10FD300061DF704710B50800110000F00FFA10BD28
:10FD4000F0B5254B85B01B78DBB20093002B18D0A3
:10FD5000224E234F33685A425A41D2B201923A6836
:10FD6000002A14D1009C002B0BD021E003983B68A3
:10FD700098472C0019E028003368984729E0002CA8
:10FD800005D005B0F0BD002CFBD1009C019403A868
:10FD9000FFF7C8FF009C0500052806D00028E5D025
:10FDA0000022110000F0DCF90024019B002BE6D1B9
:10FDB0000C4B03A91B880B800B4B1D682800FFF719
:10FDC000B7FF0528DFD00028D5D00022110000F0B1
:10FDD000C7F9002CECD1D9E7182D0020102D0020F8
:10FDE0001C2D00200C2D0020202D002070B50400BB
:10FDF0000720002913D08D0711D109480160094956
:10FE000020000A80084A09491360FFF78DFF002887
:10FE100005D10122064B16301A70FFF781FF70BD25
:10FE2000202D00200C2D0020142D002035FD010078
:10FE3000182D002010B5FFF779FF03005A1E9341DB
:10FE4000014ADBB2137010BD182D00200E230028CC
:10FE500002D0024B1860002318007047102D0020BC
:10FE60000E23002802D0024B1860002318007047B0
:10FE70001C2D0020074B10B51B68002B07D098479E
:10FE8000002803D00022110000F06AF910BDFFF72E
:10FE900057FFFBE7142D002070DF704771DF7047BC
:10FEA00060DF704710B5FFF73FFD10BD074B10B581
:10FEB0001C78002C07D1012220001A7003F0C0F832
:10FEC0002100FCF712FA002010BDC0466C2D002066
:10FED000F0B505008BB0FEF71FFF280000F008FA10
:10FEE000002003F0ADF8036806009B69984733686B
:10FEF00004001B6A3000984733680290DB6A3000C8
:10FF000098470300288810380B2800D98AE009F0A8
:10FF100029FD064B898989838989898F89ACAE88B7
:10FF2000200031002F7D01F059FA200001226B7B67
:10FF3000583001930378A97993439C460223624683
:10FF4000134303700238037804AA0133037004AB2F
:10FF5000D9701E809F70002305931381D372137391
:10FF600053739373D37313742B00019916339172E7
:10FF700005A8E91D0622099305F0DAFC29000B20EB
:10FF800004AB06220E31C01805F0D2FC943463682D
:10FF9000A360A068002845D0C36804A99847A36857
:10FFA000002BF4D01B69F3E741492000AF8801F032
:10FFB00015FAAB793000019333689B6A98470600C5
:10FFC000ED30FF300622390000F0C0FE338FBB4217
:10FFD00004D13000736B34309B689847220056324E
:10FFE0001378013BDBB21370002B03D1022193780D
:10FFF0008B439370019A04AB1F809A70A03463689E
:020000022000DC
:10000000A360A06800280DD0C36804A99847A3681E
:10001000002BF4D01B69F3E75B69A888A91D002BAE
:1000200000D098472900029802F042F80BB0F0BDCA
:10003000AE79002E05D122000121583213788B436E
:100040001370636E002BEDD01A4A002AEAD0A36623
:10005000A06E0028E6D0C36831009847A36E002B3D
:1000600001D1636EF3E71B69F1E7012669460D27AD
:10007000AB7BEF575A071E40920FDB080A710B73D8
:100080000622E91D04A805F053FC6A46127904AB68
:100090001A726A46127B9F71DE715A722B00200021
:1000A0000F3307938C348030236804A99847B9E74D
:1000B000FFFF000081C101001FB58022A323D205EC
:1000C000DB00D3580820DB0700D405301D4B482245
:1000D0001D49FFF78BFE00280BD080B2002808D105
:1000E000BFF34F8F194B1A4ADA60BFF34F8FC046E8
:1000F000FDE702AC08220021200005F035FC0123B9
:1001000020002370FFF7CCFE002802D0072004B0A7
:1001100010BD6846FFF7C2FE0028F7D16946FFF719
:10012000BBFE0028F2D10B48FFF790FE80B20028FA
:10013000EDD10948FFF794FE80B20028E7D100F026
:1001400095F9E4E7ADFE0100242D002000ED00E06C
:100150000400FA05D1FE0100A5FE01007047000071
:1001600080B2002808D1BFF34F8F044B044ADA60F5
:10017000BFF34F8FC046FDE77047C04600ED00E07B
:100180000400FA0510B50278002A0BD10C78130090
:10019000002C05D1438A488A1B1A58424341DBB2DE
:1001A000180010BD0023012AFAD10A78012AF7D1DC
:1001B000013101300F3205F0ACFB43424341EEE721
:1001C00003000200F0B55F3391B001931B785C32FD
:1001D00004000F000092022B64D1002602ABDE86E1
:1001E000310008A80796FDF745F8CA2307AD2E761B
:1001F0006E83AE83EE832E845B00E358079A9342AE
:1002000031D0002F1AD1009B26001A7818235343AF
:10021000E31876331A88D9235B003900E25230366E
:1002200002A8FDF727F802A93000FFF7ABFF00286E
:100230003FD02000636C4430002B4DD1002602AB30
:10024000DE86310008A80796FDF714F820009530E7
:1002500022222900FF302E766E83AE83EE832E8419
:1002600005F066FB1BE02000993008A9FF30FFF77E
:1002700089FF0028C5D023009533FF33197E2A7EDD
:100280004A405206BDD1598B6A8B9142B9D1DA6985
:10029000E9698A42B5D11A8C2B8C9A42B1D10123DB
:1002A000019A1370009B009A1B780133137011B0F0
:1002B000F0BD21009931FF313000FFF763FF0028C6
:1002C000BCD039002800FCF7D5FFA01D2900FFF79E
:1002D00059FF0028B2D1ACE7044B002BAED021006F
:1002E0009531FF31236D9847A8E7C04681C10100D1
:1002F0007FB50400002002F0A3FE050003689B699F
:1003000098472B6828009B6A9847060005002088BC
:100310003436303808280ED809F024FB050D19872B
:1003200027330D4B6500E388002B0BD121003000F3
:100330000C3102F031F8300002F02CFA300002F0FB
:10034000AFF97FBD6B6B30009B689847F3E7E3889C
:10035000002B05D1210030000C3102F0A5F8EAE7AE
:1003600000213000FFF72CFFE5E76B6B30005B6886
:1003700098470028DFD0210030000C3102F0FAF855
:10038000D9E76A46A3881380A3895380E3899380C1
:10039000238A1234D3800294AB68EB60E8680028AB
:1003A000C9D0C36869469847EB68002BF4D01B6935
:1003B000F3E76A46A3881380A3895380A37B137154
:1003C000238AD380638A1434138103946B69AB61ED
:1003D000A8690028AFD0C36869469847AB69002B6D
:1003E000F4D01B69F3E76A46A3881380A38953807E
:1003F000A37B1371238A1234D3802B6A0294002BBF
:1004000000D198E7144A002A00D194E76B62686A29
:10041000002800D18FE7C368694698476B6A002BB4
:1004200001D12B6AF2E71B69F0E72800E388ED3081
:10043000FF30A188002B05D085225200934206D0C0
:100440000B2205E022000C3200F093FC73E700223F
:1004500000F07CFC6FE7C04681C1010077DF704788
:1004600078DF70477ADF70477CDF70477FB5002305
:1004700002ACA380134B144E0293C8235B00E380AD
:10048000803BFF3B01AD30002B7006F0CBFA310012
:1004900082B22800FFF7E8FF80B200280FD1802049
:1004A0008000FFF7DDFF80B2002808D12000FFF7B1
:1004B000D9FF80B2002802D1FFF7D0FF80B204B08C
:1004C00070BDC046280090010CD902007EDF704745
:1004D00068DF704770B500200D0002F0B1FD0368C1
:1004E000DB6A98472B780400142B1ED003D8132BFB
:1004F0000CD0002070BD152B1FD0222BF9D16B68BA
:1005000018882369002BF4D09847F2E76B6801251F
:1005100018889B78646819005A08DB0629402A402D
:100520005B0F002CE5D0A047E3E76B68188899784B
:10053000A368002BDDD09847DBE768688278130951
:100540001207120F012A03D0022A0BD0002106E065
:10055000013BDBB20021022B01D8064AD15C0088A6
:10056000E368E6E70421012BF9D00131022BF6D034
:10057000ECE7C04612D90200014B18787047C0461C
:100580006D2D0020F0B51D000023304F87B0009284
:100590003A7806000C009A4204D1FFF7F9F90028D6
:1005A00003D00B23180007B0F0BD002D0ED003A917
:1005B00022200395FFF78CFF002807D00623082888
:1005C000F0D01138434243410433EBE7002302AA41
:1005D00010001370FEF7F0F90028E2D101251C4944
:1005E00002220B782E40AB433343072693430193FB
:1005F000009B2C4033409340AC409C46019B02AA98
:100600001C431C239C4363461C430E239B181880E9
:10061000104B0C700393022303AC2371093002AB1F
:100620000522C01805F084F921000B48FEF73CFABA
:10063000002807D033000428B4D0013B0828B1D0EB
:100640000533AFE73D700300ACE7C0466D2D0020D9
:100650003C280020D50402006E2D002010B507486C
:10066000FEF70CFB0023984206D00733042803D082
:10067000013B082800D00533180010BD6E2D002066
:10068000002373B501930F4B01AD1B780E002900B9
:100690002B70FEF70FFD041E05D00423052800D0A3
:1006A0000733180076BD31002800FEF737FA230023
:1006B0000028F6D007230428F3D0013B0828F0D007
:1006C0000533EEE76E2D002073B5114C0E000500CA
:1006D00005222100684605F02BF9012E03D0022ED9
:1006E00010D002230CE002222378B34393436946DF
:1006F00028002370FFF7EAFE0023984200D00B3356
:10070000180076BD012322781343B343EFE7C046B8
:100710003C280020094B10B51A7801000923002A53
:1007200009D00748FEF732FA0023984203D003337A
:100730000E2800D00333180010BDC0466D2D0020D8
:100740006E2D002010B5FEF704FD10BD022310B57C
:100750000B708C330B713F3B4B712D338B714A1CEB
:100760000431FEF7CDFC10BDA2DF7047A3DF704758
:1007700063DF704710B586B06B46DC1D002302AA0C
:100780002370C15C99540133102BFAD12100100061
:10079000FFF7EEFF0023984200D12378180006B03F
:1007A00010BD00000122F0B5438A87B0039303789F
:1007B00004000192002B3AD0234E83180093234A61
:1007C000336800279C461100BC4511D00023981EB9
:1007D000012804D90098D55CC05C854231D1013331
:1007E000102BF4D11120784309180B7C01931EE0E3
:1007F0000098FFF7BFFF237802900190002B01D1F2
:1008000012340094042F12D01125380068430F4C85
:1008100010222018009905F08BF8002233685D4300
:100820006419A270E270029A013322743360019A53
:1008300005AB9A705888039B00040343180007B067
:10084000F0BD01371132BFE7702D0020742D00205C
:10085000F0B59BB01F0020AB029102CB0BAC1B8804
:100860000391049322AB1B880190059323AB1B7863
:100870002000069325AB1E8826AB1B78079327AB79
:100880001B78089308ABD91D0A70012205F050F8B7
:10089000302322781A420ED00CAC03220021200013
:1008A00005F062F80622A37893431A00022313434B
:1008B000A3703A4B238013AC1C220021200005F0CA
:1008C00053F80BAB1D7830232B40591E8B410CAADB
:1008D0005B421A4025706261002E05D0249B002BDC
:1008E00002D06360268166810DAC032200212000C6
:1008F00005F03AF80121079B089A0B400A401201C3
:10090000DB001343069A0A401100022213430B43F3
:10091000A37032231D4209D0781E042806D809F09E
:1009200021F8031012141600112323700C231D420A
:1009300011D0781E04280ED809F014F80B27292BA3
:100940002D002123F1E73123EFE71223EDE72223E6
:10095000EBE711236370222008AB06220021C018A8
:1009600005F002F8029B0EAD0E93049B2A002B812A
:10097000059B13A9AB81039B01982B61289B6C609D
:10098000FFF7F2FE80B21BB0F0BD2123E2E7312376
:10099000E0E71223DEE72223DCE7C0461111000066
:1009A000F0B589B000930EAB1B8805000F00160050
:1009B000019303220FAB002102A81C7804F0D4FF9E
:1009C00001230E201C40DB181C4302AB9C700D4B16
:1009D00002AA138002AB06220021C01804F0C4FF53
:1009E00003AC02AB6360009B109A2381019B210042
:1009F00028000397A3812661FFF7B8FE80B209B0F3
:100A0000F0BDC0461111000093DF704710B50368B8
:100A1000002B01D00800984710BD10B50368002BCB
:100A200001D00800984710BD70B503680A6805003A
:100A30000C00934201D0002070BD0379002B1AD125
:100A40000B79002BF7D1C28ACB8A9A42F3D12A7E46
:100A5000237E53405B06EED16A8B638B9A42EAD1C8
:100A6000EB69E2699342E6D1238C288CC01A434299
:100A70005841C0B2E0E7012BDDD10B79012BDAD16F
:100A800005310530102204F044FF0028DFD0D2E702
:100A9000F8B504000D00222204F04AFF2A002300CA
:100AA0002432243343CA43C32B6B00212363230026
:100AB000616338330832C1CAC1C36B6C2000636400
:100AC000A164F8BD70B506000D000400E4362900ED
:100AD0002000FFF7A9FF002802D14C34B442F6D120
:100AE00070BD70B50D0004000B68102203600B7917
:100AF0000371CB8A0531C382053004F019FF2B7EC8
:100B0000200023766B8B6383AB8BA383EB8BE38318
:100B10002B8C238470BD000007B501AB1980190030
:100B20005A80FFF771FF032310280CD004D800234C
:100B3000984208D00B2306E00523112803D0034A6E
:100B4000013B9042F6D118000EBDC04602300000B5
:100B500070B502000025040005600571431D1532C3
:100B60001D7001339A42FBD12000E5822576658312
:100B7000A583E58325840C220021243004F0F4FEB3
:100B80002000064B656323630C220021383004F0FB
:100B9000EBFE034BA5642000636470BD0D0A0200E8
:100BA0001B0A020010B50400FFF7D2FF20004C30F2
:100BB000FFF7CEFF20009830FFF7CAFF200010BDDE
:100BC000F8B5040016001D00FFF78BFF230032006C
:100BD000243383CA83C3F3680022236323002900DC
:100BE00062633833C1C9C1C3EB6820006364A26487
:100BF000F8BD70B58AB004000190038C0E00016846
:100C0000132003ADAB8013780391AB71538A511C51
:100C1000684410222B8304F08BFE20006E83029523
:100C20002430236B01A998470AB070BD07B50300B3
:100C30006A460090117138305B6C6946984707BD71
:100C4000F0B50C00A7B068461500FFF74AFF220078
:100C500009AB243243CA43C30021236B0D910C938B
:100C600008320EABC1CAC1C3636C13A811931291B1
:100C7000FFF76EFF13A92000FFF70AFF290068465F
:100C8000FFF7D4FF27B0F0BD10B5040096B003A85D
:100C9000FFF75EFF03A92000FFF7C6FE002802D180
:100CA000002016B010BD0F9B226B01939342F7D129
:100CB00021000C2224310CA804F02BFE0028EFD1D7
:100CC000149B626C9342EBD121000C22383111A8A5
:100CD00004F01FFE43425841C0B2E2E7F8B50600F7
:100CE0000F000400E436390020002500FFF79CFEC9
:100CF000002804D14C34B442F5D1002504E0200092
:100D0000FFF7C2FF0028F5D12800F8BD10B5040098
:100D1000FFF7E4FF011E03D000222000FFF790FF41
:100D200010BDF8B506000F000400E436238C250042
:100D3000BB4204D04C34B442F8D1002504E020007A
:100D4000FFF7A2FF0028F5D12800F8BD70B5040018
:100D50001500FFF7E6FF011E03D02A002000FFF771
:100D60006FFF70BD10B5FFF7DCFF431E9841C0B2A6
:100D700010BDF0B58BB00700019116000024FFF7FD
:100D8000D0FF0500A04231D03388A34219D90623F1
:100D90006343F3185A889B880292039300239C466E
:100DA00005AA13706146D01801334170102BF9D198
:100DB000039B0299280001345382A4B2FFF719FF64
:100DC000E2E70622013B5343F6187188EA8B0131B2
:100DD00089B2914205D9002229003800FFF730FF7F
:100DE00004E00198FFF798FE021EF5D10BB0F0BDAC
:100DF00070B505000400E4352000FFF745FF00282A
:100E000003D14C34AC42F7D10400200070BDF0B5E2
:100E10004C8B1E000234CB8B99B0A4B207000D009E
:100E2000039201939C4209D9002405910694F3682A
:100E300005A930009847200019B0F0BD0B8C1900AF
:100E40000293FFF78FFF002801D00524F3E7380055
:100E5000FFF7CEFF071EF8D02100019A0298FFF796
:100E60005BFE041EE7D129003300039A05A8FFF7B3
:100E7000A7FE05A93800FFF70BFEDCE701600121A2
:100E800070B51C1C04AB1D8805AB1B880284027E58
:100E90004583E5078383ED0F8A4363080B402A43AC
:100EA00002258B40AA431A430423A5080D40AD0038
:100EB0009A43E6080E402A43DB18F6009A432509B8
:100EC00032430D4008332D019A432A4320256309FC
:100ED0000B40AA435B0113434022A409214089012E
:100EE00093430B43037670BD016000218C46F0B53F
:100EF00089B00FAD1E002B8810AD0EAC00932B886F
:100F00000284247803AA01931170634657180131B3
:100F10007B701029F9D1031D5682E0CAE0C360CA74
:100F200060C30122009BE5074383019BED0F838390
:100F3000037E6608934316402B4302259640AB433D
:100F400033430426A5081540AD00B3432B430825C1
:100F5000E6081640F600AB432509154033432D0142
:100F60008B432B432025610911404901AB430B43BF
:100F70004021A409224092018B431343037609B018
:100F8000F0BD70DF704771DF704772DF704773DF4D
:100F9000704774DF704775DF704776DF704777DF23
:100FA000704778DF704779DF70477ADF70477BDF03
:100FB00070477CDF70477DDF704786DF704787DFD3
:100FC000704788DF70471420704764207047A02066
:100FD0008001704710B5FFF7F2FF0023984200D060
:100FE0000533180010BD10B50400FFF7D2FF03232E
:100FF000002805D101210300583422788A43227049
:10100000180010BD08003B2110B58A4200D02839D5
:10101000FFF7C3FF0323002800D10300180010BD11
:10102000030010B5FE330A00598F03681B6A984706
:1010300010BD10B50800FFF7BAFF0323002800D148
:101040000300180010BD10B50800FFF7AEFF032322
:10105000002800D10300180010BD080010B51100D1
:10106000FFF799FF0023984200D00333180010BD0A
:10107000080010B51100FFF79EFF0023984200D032
:101080000333180010BD10B50800FFF78AFF0023D6
:10109000984200D00333180010BD10B50800FFF7C8
:1010A00082FF0023984200D00333180010BD10B512
:1010B0000800FFF774FF0023984203D0053311287E
:1010C00000D0023B180010BD024B0B6009231360D7
:1010D0007047C046B0D9020008207047B830017090
:1010E00000207047B930017000207047022070471F
:1010F000B83000787047B9300078704700207047EA
:1011000010B50368002B01D00800984710BD10B53A
:101110000368002B01D00800984710BD02000300AF
:1011200010B5F33211786C309B6F984710BD10B535
:10113000002801D01CC91CC010BD7047030010B5A9
:1011400042689968501008181B68D20701D50268D8
:10115000D358984710BD13B50C001100012C0DD8C1
:101160006B460622581C04F0E3FB00206B466946E0
:101170001C70FFF706FF002805D003E00120A31E26
:101180008342F3D9032016BD73B568460E001500DF
:10119000FFF7F9FE032400280DD1002E02D06B4684
:1011A0001B7833700024A54205D06B460622591CDB
:1011B000280004F0BDFB200076BDF8B506000D0048
:1011C000002407273300BA331B78A3420FD96B7969
:1011D000A3420CD93800604301002B68BB31711861
:1011E00018180722013404F0A3FBE4B2EAE72C71DB
:1011F0000020F8BD112337B5080001AC23700D00A5
:1012000005F010FC290082B22000FFF7D2FE002377
:10121000984200D0033318003EBD0000012110B5F4
:10122000044A0800FDF766F90023984200D00B330A
:10123000180010BDC1160200F8B503680700DB6C8A
:101240000D000C799847032384420DD80023072111
:101250002879DAB2904209D90A005A432C6801333E
:10126000125D032AF5D104231800F8BD3E000024C6
:10127000BA3634702B79A34211D9072161432B6808
:101280003078591807235843BB301A00381804F037
:101290004FFB3378013401333370E4B2EAE70023C3
:1012A000E2E710B50C00C97F01201F2902D80029F0
:1012B00001D1032010BDD37F2000FFF766FE002878
:1012C000F7D1208CFFF76DFE0028F3D0F1E7000086
:1012D000F8B505000400AC356B68AB60A868002861
:1012E00007D0C36821009847AB68002BF4D01B6976
:1012F000F3E72600B0363568002D05D02F692800A9
:1013000002F066FE3D00F7E72200FC21356058320E
:10131000137826000B40137023000A3656331D70D5
:101320009D711F222900300004F01EFBF5772A363C
:101330001F222900300004F017FBF577606E0028AB
:1013400004D0056902F044FE2800F8E7250098352E
:1013500060662868002804D0066902F039FE300073
:10136000F8E72600A43628603568002D05D02F69DF
:10137000280002F02DFE3D00F7E72000356029002F
:101380000C226C3004F0F0FA2000084BE567A367EC
:1013900029000C22803004F0E7FA2300044A8C3341
:1013A000903428001A602560F8BDC0460F11020075
:1013B0000111020010B50400FFF78AFF03000620A8
:1013C000002B0AD1220001211800FE324942518728
:1013D000BA34463A13705370237010BDFE30418703
:1013E0007047FE30408F7047F0B593B001900020F9
:1013F0000C0001F025FE0368DB6A9847FFF7BCF894
:1014000006AB00280ED000221A7105AA0692082207
:1014100018001A730AAA9A60FFF77CF9002803D013
:1014200013B0F0BD18711873002727732771019B43
:10143000BA331B78BB4242D907237B431A00019978
:10144000BB32CB18BB331B788A180292022B2ED1E9
:10145000002506AE337BAB4223D9AB000393089B38
:10146000AA0099580298FFF76DF900281CD0B368BC
:101470009C46AB001900237B614402939A000868E4
:10148000A368D050029B01332373337B5A1E9542CD
:1014900005D00C481B1860469B001B580B6006AB20
:1014A0001A730137FFB2C2E70135EDB2D1E72379F4
:1014B000216802989A00013350502371F1E700200F
:1014C000AEE7C046FFFFFF3F70B50C0009789AB049
:1014D0000222012908D06388032908D1A03B1F4DAF
:1014E0009BB20A00AB4208D910001AB070BD203B75
:1014F0001B499BB203228B42F6D81A4BA1880322C8
:101500009942F1D80AAB009312AB02936A460023CA
:10151000050013711373B8352B78002B17D104AE67
:1015200018220021300004F01FFA237830003370B5
:101530002B7833726B46F36063883382A38873829F
:10154000FFF725FD00229042CED00332CCE769465A
:10155000FFF74AFF021EE2D0C6E7C046603F000028
:10156000E03F0000FF3F000070B598B008AB00936B
:1015700010AB02936A460023050013711373B9354B
:101580002B780C00002B1ED1012604A80378A1792A
:101590002A783140B3430B4332400221B2408B439F
:1015A000134303706B464360238803816388438140
:1015B000A3888381FFF701FD03000320002B00D1E6
:1015C000180018B070BD6946FFF70EFF0028DBD089
:1015D000F7E70000F0B59DB01E006B4604001A70DE
:1015E000581C0622229D04F0A3F9002E2ED032882A
:1015F00002AB1A8072885A80B2889A80F288DA80A8
:101600000CAB04AE049314ABB36027000023B937CE
:10161000337133733B78002B1ED101223B780227B4
:1016200008A9134058000B784E60BB430343002DBC
:101630001AD12000323000789343104003430B70DE
:10164000A38D0B81E38D4B81238E17E01A4B029300
:1016500096239B040393D3E731002000FFF7C4FED9
:101660000028DAD01DB0F0BDA879934310400343A1
:101670000B702B880B816B884B81AB8802AA684664
:101680008B81FFF79EFC030000208342EAD00630E6
:10169000082BE7D006D80130042BE3D0834209D1D0
:1016A0000420DFE70520112BDCD0044A9342F7D059
:1016B000102BF5D00B20D5E7320064000232000079
:1016C0007FB50500002001F0BBFC03689B699847CB
:1016D0000300F3331D706D46040006001022002144
:1016E000280004F041F91A4B02940093002301935F
:1016F000184BF836EB6003F05DFE2300FC331B6BE8
:10170000002B07D123003133FF331B78002B01D08E
:1017100003F080F92134FF34AC420DD02000FBF7F8
:1017200001FB002C08D0EB68002B03D05B6829007C
:1017300020009847EB68E36030000022002303F0AC
:101740000AFA03F04DFE2800FBF7ECFA7FBDC04615
:101750001D11020018D902000220704700207047B6
:10176000704790DF704795DF704797DF7047933081
:101770000078431E9841C0B27047080010B51100B0
:101780001A00FFF7F0FF0023984203D01138431EE0
:101790009841431D180010BD30B5002485B001AD3F
:1017A0006B80089B2970EB80099B290010006C70EE
:1017B000AC800393FFF7D9FFA04207D0053411286E
:1017C00004D0044BC018444244410634200005B004
:1017D00030BDC046FCCFFFFF10B50368002B01D021
:1017E0000800984710BD10B50368002B01D0080011
:1017F000984710BD10B50368002B01D0080098472A
:1018000010BD10B5ED30FF30FFF701FB10BD10B576
:10181000ED30FF30FFF756F910BD10B5ED30FF3059
:10182000FFF774FA10BDF0B587B001AB1A000C00D9
:10183000E0CCE0C20200B532FF32C96870CB70C2A2
:101840000023B530FF30C160036107B0F0BD000078
:10185000F0B597B00593036807AC1B680491039338
:10186000110023000600A1C9A1C30025D3682900E7
:101870000C220CA80A9311AF0B9504F075F8094BD4
:10188000290038000F931095FBF7F4FC059B22000C
:10189000009301970CAB04993000039CA04717B04C
:1018A000F0BDC046E7170200F0B50026050087B07E
:1018B00001AC868031002000FBF7DCFC2100A81D74
:1018C000142204F035F80C2728003A0031001C30AF
:1018D00004F04AF80C4B3100AB62EE622000FBF7DB
:1018E000C9FC2B00303307CC07C3280006CC06C345
:1018F00044303A00310004F037F83000034B6E6595
:101900002B6507B0F0BDC046D9170200E7170200EB
:1019100070B50400E36A2363206B002807D0C36816
:1019200021009847236B002BF4D01B69F3E7E06A92
:10193000002804D0056902F04BFB2800F8E7E062BC
:10194000A068002804D0056902F042FB2800F8E7EF
:10195000A0606069002804D0056902F039FB280006
:10196000F8E76061206A002804D0056902F030FBC6
:101970002800F8E7206270BD70B50400FFF7C8FFCB
:101980000625061E29D120003430FFF78DFF3500D3
:10199000002822D1230090331E809E70DE70C22367
:1019A0005B00E650E218863BFF3B53609360D360D8
:1019B0001361CE225200A6502200B5349D32FF3270
:1019C000FF3453609360D360136131000C22200018
:1019D00003F0CAFF024B2661E360280070BDC046D9
:1019E000F5170200262370B5002405008AB06B4469
:1019F0001C80210002A80194FBF73CFC280001AEEA
:101A0000953022223100FF3034767483B483F4831E
:101A1000348403F08DFF2B6828005B6898472B0007
:101A20005F331C70A0420DD0C02328005B00EB5830
:101A30008130FF30A34205D0034BA34202D0A988D6
:101A4000C36898470AB070BD81C1010010B5343039
:101A5000FFF7C8FF10BD0000F0B591B0019106A9D5
:101A600004009C4610000B00E0C8E0C3D368654644
:101A700004930BAB18000293C8CDC8C02000270008
:101A80003430059093373D780620002D3BD16046D9
:101A9000C368039350239C46A444634645C945C389
:101AA000049B029AE36523002566783343CA43C347
:101AB0002000039A16991A6004331D6014223A30EC
:101AC00003F036FF200014221799643003F030FF32
